{
  "_format": "hh-sol-artifact-1",
  "contractName": "InvoiceNFT",
  "sourceName": "contracts/InvoiceNFT.sol",
  "abi": [
    {
      "inputs": [
        {
          "internalType": "address",
          "name": "initialOwner",
          "type": "address"
        }
      ],
      "stateMutability": "nonpayable",
      "type": "constructor"
    },
    {
      "inputs": [
        {
          "internalType": "address",
          "name": "sender",
          "type": "address"
        },
        {
          "internalType": "uint256",
          "name": "tokenId",
          "type": "uint256"
        },
        {
          "internalType": "address",
          "name": "owner",
          "type": "address"
        }
      ],
      "name": "ERC721IncorrectOwner",
      "type": "error"
    },
    {
      "inputs": [
        {
          "internalType": "address",
          "name": "operator",
          "type": "address"
        },
        {
          "internalType": "uint256",
          "name": "tokenId",
          "type": "uint256"
        }
      ],
      "name": "ERC721InsufficientApproval",
      "type": "error"
    },
    {
      "inputs": [
        {
          "internalType": "address",
          "name": "approver",
          "type": "address"
        }
      ],
      "name": "ERC721InvalidApprover",
      "type": "error"
    },
    {
      "inputs": [
        {
          "internalType": "address",
          "name": "operator",
          "type": "address"
        }
      ],
      "name": "ERC721InvalidOperator",
      "type": "error"
    },
    {
      "inputs": [
        {
          "internalType": "address",
          "name": "owner",
          "type": "address"
        }
      ],
      "name": "ERC721InvalidOwner",
      "type": "error"
    },
    {
      "inputs": [
        {
          "internalType": "address",
          "name": "receiver",
          "type": "address"
        }
      ],
      "name": "ERC721InvalidReceiver",
      "type": "error"
    },
    {
      "inputs": [
        {
          "internalType": "address",
          "name": "sender",
          "type": "address"
        }
      ],
      "name": "ERC721InvalidSender",
      "type": "error"
    },
    {
      "inputs": [
        {
          "internalType": "uint256",
          "name": "tokenId",
          "type": "uint256"
        }
      ],
      "name": "ERC721NonexistentToken",
      "type": "error"
    },
    {
      "inputs": [
        {
          "internalType": "address",
          "name": "owner",
          "type": "address"
        }
      ],
      "name": "OwnableInvalidOwner",
      "type": "error"
    },
    {
      "inputs": [
        {
          "internalType": "address",
          "name": "account",
          "type": "address"
        }
      ],
      "name": "OwnableUnauthorizedAccount",
      "type": "error"
    },
    {
      "anonymous": false,
      "inputs": [
        {
          "indexed": true,
          "internalType": "address",
          "name": "owner",
          "type": "address"
        },
        {
          "indexed": true,
          "internalType": "address",
          "name": "approved",
          "type": "address"
        },
        {
          "indexed": true,
          "internalType": "uint256",
          "name": "tokenId",
          "type": "uint256"
        }
      ],
      "name": "Approval",
      "type": "event"
    },
    {
      "anonymous": false,
      "inputs": [
        {
          "indexed": true,
          "internalType": "address",
          "name": "owner",
          "type": "address"
        },
        {
          "indexed": true,
          "internalType": "address",
          "name": "operator",
          "type": "address"
        },
        {
          "indexed": false,
          "internalType": "bool",
          "name": "approved",
          "type": "bool"
        }
      ],
      "name": "ApprovalForAll",
      "type": "event"
    },
    {
      "anonymous": false,
      "inputs": [
        {
          "indexed": true,
          "internalType": "uint256",
          "name": "tokenId",
          "type": "uint256"
        },
        {
          "indexed": true,
          "internalType": "address",
          "name": "vendor",
          "type": "address"
        },
        {
          "indexed": false,
          "internalType": "uint256",
          "name": "amount",
          "type": "uint256"
        }
      ],
      "name": "InvoiceMinted",
      "type": "event"
    },
    {
      "anonymous": false,
      "inputs": [
        {
          "indexed": true,
          "internalType": "address",
          "name": "previousOwner",
          "type": "address"
        },
        {
          "indexed": true,
          "internalType": "address",
          "name": "newOwner",
          "type": "address"
        }
      ],
      "name": "OwnershipTransferred",
      "type": "event"
    },
    {
      "anonymous": false,
      "inputs": [
        {
          "indexed": true,
          "internalType": "address",
          "name": "from",
          "type": "address"
        },
        {
          "indexed": true,
          "internalType": "address",
          "name": "to",
          "type": "address"
        },
        {
          "indexed": true,
          "internalType": "uint256",
          "name": "tokenId",
          "type": "uint256"
        }
      ],
      "name": "Transfer",
      "type": "event"
    },
    {
      "inputs": [
        {
          "internalType": "address",
          "name": "to",
          "type": "address"
        },
        {
          "internalType": "uint256",
          "name": "tokenId",
          "type": "uint256"
        }
      ],
      "name": "approve",
      "outputs": [],
      "stateMutability": "nonpayable",
      "type": "function"
    },
    {
      "inputs": [
        {
          "internalType": "address",
          "name": "owner",
          "type": "address"
        }
      ],
      "name": "balanceOf",
      "outputs": [
        {
          "internalType": "uint256",
          "name": "",
          "type": "uint256"
        }
      ],
      "stateMutability": "view",
      "type": "function"
    },
    {
      "inputs": [
        {
          "internalType": "uint256",
          "name": "tokenId",
          "type": "uint256"
        }
      ],
      "name": "getApproved",
      "outputs": [
        {
          "internalType": "address",
          "name": "",
          "type": "address"
        }
      ],
      "stateMutability": "view",
      "type": "function"
    },
    {
      "inputs": [
        {
          "internalType": "uint256",
          "name": "tokenId",
          "type": "uint256"
        }
      ],
      "name": "getInvoice",
      "outputs": [
        {
          "components": [
            {
              "internalType": "uint256",
              "name": "amount",
              "type": "uint256"
            },
            {
              "internalType": "uint256",
              "name": "dueDate",
              "type": "uint256"
            },
            {
              "internalType": "uint256",
              "name": "interestRate",
              "type": "uint256"
            },
            {
              "internalType": "address",
              "name": "vendor",
              "type": "address"
            },
            {
              "internalType": "bool",
              "name": "isFunded",
              "type": "bool"
            }
          ],
          "internalType": "struct InvoiceNFT.InvoiceData",
          "name": "",
          "type": "tuple"
        }
      ],
      "stateMutability": "view",
      "type": "function"
    },
    {
      "inputs": [
        {
          "internalType": "uint256",
          "name": "",
          "type": "uint256"
        }
      ],
      "name": "invoices",
      "outputs": [
        {
          "internalType": "uint256",
          "name": "amount",
          "type": "uint256"
        },
        {
          "internalType": "uint256",
          "name": "dueDate",
          "type": "uint256"
        },
        {
          "internalType": "uint256",
          "name": "interestRate",
          "type": "uint256"
        },
        {
          "internalType": "address",
          "name": "vendor",
          "type": "address"
        },
        {
          "internalType": "bool",
          "name": "isFunded",
          "type": "bool"
        }
      ],
      "stateMutability": "view",
      "type": "function"
    },
    {
      "inputs": [
        {
          "internalType": "address",
          "name": "owner",
          "type": "address"
        },
        {
          "internalType": "address",
          "name": "operator",
          "type": "address"
        }
      ],
      "name": "isApprovedForAll",
      "outputs": [
        {
          "internalType": "bool",
          "name": "",
          "type": "bool"
        }
      ],
      "stateMutability": "view",
      "type": "function"
    },
    {
      "inputs": [],
      "name": "lendingPool",
      "outputs": [
        {
          "internalType": "address",
          "name": "",
          "type": "address"
        }
      ],
      "stateMutability": "view",
      "type": "function"
    },
    {
      "inputs": [
        {
          "internalType": "address",
          "name": "to",
          "type": "address"
        },
        {
          "internalType": "uint256",
          "name": "amount",
          "type": "uint256"
        },
        {
          "internalType": "uint256",
          "name": "dueDate",
          "type": "uint256"
        },
        {
          "internalType": "uint256",
          "name": "interestRate",
          "type": "uint256"
        }
      ],
      "name": "mintInvoice",
      "outputs": [
        {
          "internalType": "uint256",
          "name": "",
          "type": "uint256"
        }
      ],
      "stateMutability": "nonpayable",
      "type": "function"
    },
    {
      "inputs": [],
      "name": "name",
      "outputs": [
        {
          "internalType": "string",
          "name": "",
          "type": "string"
        }
      ],
      "stateMutability": "view",
      "type": "function"
    },
    {
      "inputs": [],
      "name": "owner",
      "outputs": [
        {
          "internalType": "address",
          "name": "",
          "type": "address"
        }
      ],
      "stateMutability": "view",
      "type": "function"
    },
    {
      "inputs": [
        {
          "internalType": "uint256",
          "name": "tokenId",
          "type": "uint256"
        }
      ],
      "name": "ownerOf",
      "outputs": [
        {
          "internalType": "address",
          "name": "",
          "type": "address"
        }
      ],
      "stateMutability": "view",
      "type": "function"
    },
    {
      "inputs": [],
      "name": "renounceOwnership",
      "outputs": [],
      "stateMutability": "nonpayable",
      "type": "function"
    },
    {
      "inputs": [
        {
          "internalType": "address",
          "name": "from",
          "type": "address"
        },
        {
          "internalType": "address",
          "name": "to",
          "type": "address"
        },
        {
          "internalType": "uint256",
          "name": "tokenId",
          "type": "uint256"
        }
      ],
      "name": "safeTransferFrom",
      "outputs": [],
      "stateMutability": "nonpayable",
      "type": "function"
    },
    {
      "inputs": [
        {
          "internalType": "address",
          "name": "from",
          "type": "address"
        },
        {
          "internalType": "address",
          "name": "to",
          "type": "address"
        },
        {
          "internalType": "uint256",
          "name": "tokenId",
          "type": "uint256"
        },
        {
          "internalType": "bytes",
          "name": "data",
          "type": "bytes"
        }
      ],
      "name": "safeTransferFrom",
      "outputs": [],
      "stateMutability": "nonpayable",
      "type": "function"
    },
    {
      "inputs": [
        {
          "internalType": "address",
          "name": "operator",
          "type": "address"
        },
        {
          "internalType": "bool",
          "name": "approved",
          "type": "bool"
        }
      ],
      "name": "setApprovalForAll",
      "outputs": [],
      "stateMutability": "nonpayable",
      "type": "function"
    },
    {
      "inputs": [
        {
          "internalType": "uint256",
          "name": "tokenId",
          "type": "uint256"
        },
        {
          "internalType": "bool",
          "name": "status",
          "type": "bool"
        }
      ],
      "name": "setFunded",
      "outputs": [],
      "stateMutability": "nonpayable",
      "type": "function"
    },
    {
      "inputs": [
        {
          "internalType": "address",
          "name": "_pool",
          "type": "address"
        }
      ],
      "name": "setLendingPool",
      "outputs": [],
      "stateMutability": "nonpayable",
      "type": "function"
    },
    {
      "inputs": [
        {
          "internalType": "bytes4",
          "name": "interfaceId",
          "type": "bytes4"
        }
      ],
      "name": "supportsInterface",
      "outputs": [
        {
          "internalType": "bool",
          "name": "",
          "type": "bool"
        }
      ],
      "stateMutability": "view",
      "type": "function"
    },
    {
      "inputs": [],
      "name": "symbol",
      "outputs": [
        {
          "internalType": "string",
          "name": "",
          "type": "string"
        }
      ],
      "stateMutability": "view",
      "type": "function"
    },
    {
      "inputs": [
        {
          "internalType": "uint256",
          "name": "tokenId",
          "type": "uint256"
        }
      ],
      "name": "tokenURI",
      "outputs": [
        {
          "internalType": "string",
          "name": "",
          "type": "string"
        }
      ],
      "stateMutability": "view",
      "type": "function"
    },
    {
      "inputs": [
        {
          "internalType": "address",
          "name": "from",
          "type": "address"
        },
        {
          "internalType": "address",
          "name": "to",
          "type": "address"
        },
        {
          "internalType": "uint256",
          "name": "tokenId",
          "type": "uint256"
        }
      ],
      "name": "transferFrom",
      "outputs": [],
      "stateMutability": "nonpayable",
      "type": "function"
    },
    {
      "inputs": [
        {
          "internalType": "address",
          "name": "newOwner",
          "type": "address"
        }
      ],
      "name": "transferOwnership",
      "outputs": [],
      "stateMutability": "nonpayable",
      "type": "function"
    }
  ],
  "bytecode": "0x60806040523480156200001157600080fd5b5060405162002f5438038062002f54833981810160405281019062000037919062000288565b806040518060400160405280601481526020017f437265646950726f6375726520496e766f6963650000000000000000000000008152506040518060400160405280600381526020017f43504900000000000000000000000000000000000000000000000000000000008152508160009081620000b5919062000534565b508060019081620000c7919062000534565b505050600073ffffffffffffffffffffffffffffffffffffffff168173ffffffffffffffffffffffffffffffffffffffff16036200013f5760006040517f1e4fbdf70000000000000000000000000000000000000000000000000000000081526004016200013691906200062c565b60405180910390fd5b62000150816200015860201b60201c565b505062000649565b6000600660009054906101000a900473ffffffffffffffffffffffffffffffffffffffff16905081600660006101000a81548173ffffffffffffffffffffffffffffffffffffffff021916908373ffffffffffffffffffffffffffffffffffffffff1602179055508173ffffffffffffffffffffffffffffffffffffffff168173ffffffffffffffffffffffffffffffffffffffff167f8be0079c531659141344cd1fd0a4f28419497f9722a3daafe3b4186f6b6457e060405160405180910390a35050565b600080fd5b600073ffffffffffffffffffffffffffffffffffffffff82169050919050565b6000620002508262000223565b9050919050565b620002628162000243565b81146200026e57600080fd5b50565b600081519050620002828162000257565b92915050565b600060208284031215620002a157620002a06200021e565b5b6000620002b18482850162000271565b91505092915050565b600081519050919050565b7f4e487b7100000000000000000000000000000000000000000000000000000000600052604160045260246000fd5b7f4e487b7100000000000000000000000000000000000000000000000000000000600052602260045260246000fd5b600060028204905060018216806200033c57607f821691505b602082108103620003525762000351620002f4565b5b50919050565b60008190508160005260206000209050919050565b60006020601f8301049050919050565b600082821b905092915050565b600060088302620003bc7fffffffffffffffffffffffffffffffffffffffffffffffffffffffffffffffff826200037d565b620003c886836200037d565b95508019841693508086168417925050509392505050565b6000819050919050565b6000819050919050565b6000620004156200040f6200040984620003e0565b620003ea565b620003e0565b9050919050565b6000819050919050565b6200043183620003f4565b6200044962000440826200041c565b8484546200038a565b825550505050565b600090565b6200046062000451565b6200046d81848462000426565b505050565b5b8181101562000495576200048960008262000456565b60018101905062000473565b5050565b601f821115620004e457620004ae8162000358565b620004b9846200036d565b81016020851015620004c9578190505b620004e1620004d8856200036d565b83018262000472565b50505b505050565b600082821c905092915050565b60006200050960001984600802620004e9565b1980831691505092915050565b6000620005248383620004f6565b9150826002028217905092915050565b6200053f82620002ba565b67ffffffffffffffff8111156200055b576200055a620002c5565b5b62000567825462000323565b6200057482828562000499565b600060209050601f831160018114620005ac576000841562000597578287015190505b620005a3858262000516565b86555062000613565b601f198416620005bc8662000358565b60005b82811015620005e657848901518255600182019150602085019450602081019050620005bf565b8683101562000606578489015162000602601f891682620004f6565b8355505b6001600288020188555050505b505050505050565b620006268162000243565b82525050565b60006020820190506200064360008301846200061b565b92915050565b6128fb80620006596000396000f3fe608060405234801561001057600080fd5b50600436106101425760003560e01c806370a08231116100b8578063a22cb4651161007c578063a22cb4651461038b578063a59a9973146103a7578063b88d4fde146103c5578063c87b56dd146103e1578063e985e9c514610411578063f2fde38b1461044157610142565b806370a08231146102e5578063715018a6146103155780638da5cb5b1461031f57806395d89b411461033d578063984582ac1461035b57610142565b8063113aa8b11161010a578063113aa8b1146101fd57806323b872dd146102195780633a23cc0a1461023557806342842e0e146102655780634e6d1405146102815780636352211e146102b557610142565b806301ffc9a71461014757806305f7db621461017757806306fdde0314610193578063081812fc146101b1578063095ea7b3146101e1575b600080fd5b610161600480360381019061015c9190611e26565b61045d565b60405161016e9190611e6e565b60405180910390f35b610191600480360381019061018c9190611eeb565b61053f565b005b61019b6106b5565b6040516101a89190611fbb565b60405180910390f35b6101cb60048036038101906101c69190611fdd565b610747565b6040516101d8919061204b565b60405180910390f35b6101fb60048036038101906101f69190612092565b610763565b005b610217600480360381019061021291906120d2565b610779565b005b610233600480360381019061022e91906120ff565b6107c5565b005b61024f600480360381019061024a9190611fdd565b6108c7565b60405161025c91906121e7565b60405180910390f35b61027f600480360381019061027a91906120ff565b610983565b005b61029b60048036038101906102969190611fdd565b6109a3565b6040516102ac959493929190612211565b60405180910390f35b6102cf60048036038101906102ca9190611fdd565b610a06565b6040516102dc919061204b565b60405180910390f35b6102ff60048036038101906102fa91906120d2565b610a18565b60405161030c9190612264565b60405180910390f35b61031d610ad2565b005b610327610ae6565b604051610334919061204b565b60405180910390f35b610345610b10565b6040516103529190611fbb565b60405180910390f35b6103756004803603810190610370919061227f565b610ba2565b6040516103829190612264565b60405180910390f35b6103a560048036038101906103a091906122e6565b610d07565b005b6103af610d1d565b6040516103bc919061204b565b60405180910390f35b6103df60048036038101906103da919061245b565b610d43565b005b6103fb60048036038101906103f69190611fdd565b610d68565b6040516104089190611fbb565b60405180910390f35b61042b600480360381019061042691906124de565b610dd1565b6040516104389190611e6e565b60405180910390f35b61045b600480360381019061045691906120d2565b610e65565b005b60007f80ac58cd000000000000000000000000000000000000000000000000000000007bffffffffffffffffffffffffffffffffffffffffffffffffffffffff1916827bffffffffffffffffffffffffffffffffffffffffffffffffffffffff1916148061052857507f5b5e139f000000000000000000000000000000000000000000000000000000007bffffffffffffffffffffffffffffffffffffffffffffffffffffffff1916827bffffffffffffffffffffffffffffffffffffffffffffffffffffffff1916145b80610538575061053782610eeb565b5b9050919050565b600960009054906101000a900473ffffffffffffffffffffffffffffffffffffffff1673ffffffffffffffffffffffffffffffffffffffff163373ffffffffffffffffffffffffffffffffffffffff1614806105cd575061059e610ae6565b73ffffffffffffffffffffffffffffffffffffffff163373ffffffffffffffffffffffffffffffffffffffff16145b61060c576040517f08c379a000000000000000000000000000000000000000000000000000000000815260040161060390612590565b60405180910390fd5b600073ffffffffffffffffffffffffffffffffffffffff1661062d83610a06565b73ffffffffffffffffffffffffffffffffffffffff1603610683576040517f08c379a000000000000000000000000000000000000000000000000000000000815260040161067a906125fc565b60405180910390fd5b806008600084815260200190815260200160002060030160146101000a81548160ff0219169083151502179055505050565b6060600080546106c49061264b565b80601f01602080910402602001604051908101604052809291908181526020018280546106f09061264b565b801561073d5780601f106107125761010080835404028352916020019161073d565b820191906000526020600020905b81548152906001019060200180831161072057829003601f168201915b5050505050905090565b600061075282610f55565b5061075c82610fdd565b9050919050565b610775828261077061101a565b611022565b5050565b610781611034565b80600960006101000a81548173ffffffffffffffffffffffffffffffffffffffff021916908373ffffffffffffffffffffffffffffffffffffffff16021790555050565b600073ffffffffffffffffffffffffffffffffffffffff168273ffffffffffffffffffffffffffffffffffffffff16036108375760006040517f64a0ae9200000000000000000000000000000000000000000000000000000000815260040161082e919061204b565b60405180910390fd5b600061084b838361084661101a565b6110bb565b90508373ffffffffffffffffffffffffffffffffffffffff168173ffffffffffffffffffffffffffffffffffffffff16146108c1578382826040517f64283d7b0000000000000000000000000000000000000000000000000000000081526004016108b89392919061267c565b60405180910390fd5b50505050565b6108cf611d73565b600860008381526020019081526020016000206040518060a00160405290816000820154815260200160018201548152602001600282015481526020016003820160009054906101000a900473ffffffffffffffffffffffffffffffffffffffff1673ffffffffffffffffffffffffffffffffffffffff1673ffffffffffffffffffffffffffffffffffffffff1681526020016003820160149054906101000a900460ff1615151515815250509050919050565b61099e83838360405180602001604052806000815250610d43565b505050565b60086020528060005260406000206000915090508060000154908060010154908060020154908060030160009054906101000a900473ffffffffffffffffffffffffffffffffffffffff16908060030160149054906101000a900460ff16905085565b6000610a1182610f55565b9050919050565b60008073ffffffffffffffffffffffffffffffffffffffff168273ffffffffffffffffffffffffffffffffffffffff1603610a8b5760006040517f89c62b64000000000000000000000000000000000000000000000000000000008152600401610a82919061204b565b60405180910390fd5b600360008373ffffffffffffffffffffffffffffffffffffffff1673ffffffffffffffffffffffffffffffffffffffff168152602001908152602001600020549050919050565b610ada611034565b610ae460006112d5565b565b6000600660009054906101000a900473ffffffffffffffffffffffffffffffffffffffff16905090565b606060018054610b1f9061264b565b80601f0160208091040260200160405190810160405280929190818152602001828054610b4b9061264b565b8015610b985780601f10610b6d57610100808354040283529160200191610b98565b820191906000526020600020905b815481529060010190602001808311610b7b57829003601f168201915b5050505050905090565b6000610bac611034565b600060076000815480929190610bc1906126e2565b919050559050610bd1868261139b565b6040518060a001604052808681526020018581526020018481526020018773ffffffffffffffffffffffffffffffffffffffff168152602001600015158152506008600083815260200190815260200160002060008201518160000155602082015181600101556040820151816002015560608201518160030160006101000a81548173ffffffffffffffffffffffffffffffffffffffff021916908373ffffffffffffffffffffffffffffffffffffffff16021790555060808201518160030160146101000a81548160ff0219169083151502179055509050508573ffffffffffffffffffffffffffffffffffffffff16817fcbf2d87e0ed2db7e41d12a25e364aaa9e7c2d9e2b890a545f3f420035158b80187604051610cf39190612264565b60405180910390a380915050949350505050565b610d19610d1261101a565b8383611494565b5050565b600960009054906101000a900473ffffffffffffffffffffffffffffffffffffffff1681565b610d4e8484846107c5565b610d62610d5961101a565b85858585611603565b50505050565b6060610d7382610f55565b506000610d7e6117b4565b90506000815111610d9e5760405180602001604052806000815250610dc9565b80610da8846117cb565b604051602001610db9929190612766565b6040516020818303038152906040525b915050919050565b6000600560008473ffffffffffffffffffffffffffffffffffffffff1673ffffffffffffffffffffffffffffffffffffffff16815260200190815260200160002060008373ffffffffffffffffffffffffffffffffffffffff1673ffffffffffffffffffffffffffffffffffffffff16815260200190815260200160002060009054906101000a900460ff16905092915050565b610e6d611034565b600073ffffffffffffffffffffffffffffffffffffffff168173ffffffffffffffffffffffffffffffffffffffff1603610edf5760006040517f1e4fbdf7000000000000000000000000000000000000000000000000000000008152600401610ed6919061204b565b60405180910390fd5b610ee8816112d5565b50565b60007f01ffc9a7000000000000000000000000000000000000000000000000000000007bffffffffffffffffffffffffffffffffffffffffffffffffffffffff1916827bffffffffffffffffffffffffffffffffffffffffffffffffffffffff1916149050919050565b600080610f6183611899565b9050600073ffffffffffffffffffffffffffffffffffffffff168173ffffffffffffffffffffffffffffffffffffffff1603610fd457826040517f7e273289000000000000000000000000000000000000000000000000000000008152600401610fcb9190612264565b60405180910390fd5b80915050919050565b60006004600083815260200190815260200160002060009054906101000a900473ffffffffffffffffffffffffffffffffffffffff169050919050565b600033905090565b61102f83838360016118d6565b505050565b61103c61101a565b73ffffffffffffffffffffffffffffffffffffffff1661105a610ae6565b73ffffffffffffffffffffffffffffffffffffffff16146110b95761107d61101a565b6040517f118cdaa70000000000000000000000000000000000000000000000000000000081526004016110b0919061204b565b60405180910390fd5b565b6000806110c784611899565b9050600073ffffffffffffffffffffffffffffffffffffffff168373ffffffffffffffffffffffffffffffffffffffff161461110957611108818486611a9b565b5b600073ffffffffffffffffffffffffffffffffffffffff168173ffffffffffffffffffffffffffffffffffffffff161461119a5761114b6000856000806118d6565b6001600360008373ffffffffffffffffffffffffffffffffffffffff1673ffffffffffffffffffffffffffffffffffffffff168152602001908152602001600020600082825403925050819055505b600073ffffffffffffffffffffffffffffffffffffffff168573ffffffffffffffffffffffffffffffffffffffff161461121d576001600360008773ffffffffffffffffffffffffffffffffffffffff1673ffffffffffffffffffffffffffffffffffffffff168152602001908152602001600020600082825401925050819055505b846002600086815260200190815260200160002060006101000a81548173ffffffffffffffffffffffffffffffffffffffff021916908373ffffffffffffffffffffffffffffffffffffffff160217905550838573ffffffffffffffffffffffffffffffffffffffff168273ffffffffffffffffffffffffffffffffffffffff167fddf252ad1be2c89b69c2b068fc378daa952ba7f163c4a11628f55a4df523b3ef60405160405180910390a4809150509392505050565b6000600660009054906101000a900473ffffffffffffffffffffffffffffffffffffffff16905081600660006101000a81548173ffffffffffffffffffffffffffffffffffffffff021916908373ffffffffffffffffffffffffffffffffffffffff1602179055508173ffffffffffffffffffffffffffffffffffffffff168173ffffffffffffffffffffffffffffffffffffffff167f8be0079c531659141344cd1fd0a4f28419497f9722a3daafe3b4186f6b6457e060405160405180910390a35050565b600073ffffffffffffffffffffffffffffffffffffffff168273ffffffffffffffffffffffffffffffffffffffff160361140d5760006040517f64a0ae92000000000000000000000000000000000000000000000000000000008152600401611404919061204b565b60405180910390fd5b600061141b838360006110bb565b9050600073ffffffffffffffffffffffffffffffffffffffff168173ffffffffffffffffffffffffffffffffffffffff161461148f5760006040517f73c6ac6e000000000000000000000000000000000000000000000000000000008152600401611486919061204b565b60405180910390fd5b505050565b600073ffffffffffffffffffffffffffffffffffffffff168273ffffffffffffffffffffffffffffffffffffffff160361150557816040517f5b08ba180000000000000000000000000000000000000000000000000000000081526004016114fc919061204b565b60405180910390fd5b80600560008573ffffffffffffffffffffffffffffffffffffffff1673ffffffffffffffffffffffffffffffffffffffff16815260200190815260200160002060008473ffffffffffffffffffffffffffffffffffffffff1673ffffffffffffffffffffffffffffffffffffffff16815260200190815260200160002060006101000a81548160ff0219169083151502179055508173ffffffffffffffffffffffffffffffffffffffff168373ffffffffffffffffffffffffffffffffffffffff167f17307eab39ab6107e8899845ad3d59bd9653f200f220920489ca2b5937696c31836040516115f69190611e6e565b60405180910390a3505050565b60008373ffffffffffffffffffffffffffffffffffffffff163b11156117ad578273ffffffffffffffffffffffffffffffffffffffff1663150b7a02868685856040518563ffffffff1660e01b815260040161166294939291906127df565b6020604051808303816000875af192505050801561169e57506040513d601f19601f8201168201806040525081019061169b9190612840565b60015b611722573d80600081146116ce576040519150601f19603f3d011682016040523d82523d6000602084013e6116d3565b606091505b50600081510361171a57836040517f64a0ae92000000000000000000000000000000000000000000000000000000008152600401611711919061204b565b60405180910390fd5b805160208201fd5b63150b7a0260e01b7bffffffffffffffffffffffffffffffffffffffffffffffffffffffff1916817bffffffffffffffffffffffffffffffffffffffffffffffffffffffff1916146117ab57836040517f64a0ae920000000000000000000000000000000000000000000000000000000081526004016117a2919061204b565b60405180910390fd5b505b5050505050565b606060405180602001604052806000815250905090565b6060600060016117da84611b5f565b01905060008167ffffffffffffffff8111156117f9576117f8612330565b5b6040519080825280601f01601f19166020018201604052801561182b5781602001600182028036833780820191505090505b509050600082602083010190505b60011561188e578080600190039150507f3031323334353637383961626364656600000000000000000000000000000000600a86061a8153600a85816118825761188161286d565b5b04945060008503611839575b819350505050919050565b60006002600083815260200190815260200160002060009054906101000a900473ffffffffffffffffffffffffffffffffffffffff169050919050565b808061190f5750600073ffffffffffffffffffffffffffffffffffffffff168273ffffffffffffffffffffffffffffffffffffffff1614155b15611a4357600061191f84610f55565b9050600073ffffffffffffffffffffffffffffffffffffffff168373ffffffffffffffffffffffffffffffffffffffff161415801561198a57508273ffffffffffffffffffffffffffffffffffffffff168173ffffffffffffffffffffffffffffffffffffffff1614155b801561199d575061199b8184610dd1565b155b156119df57826040517fa9fbf51f0000000000000000000000000000000000000000000000000000000081526004016119d6919061204b565b60405180910390fd5b8115611a4157838573ffffffffffffffffffffffffffffffffffffffff168273ffffffffffffffffffffffffffffffffffffffff167f8c5be1e5ebec7d5bd14f71427d1e84f3dd0314c0f7b2291e5b200ac8c7c3b92560405160405180910390a45b505b836004600085815260200190815260200160002060006101000a81548173ffffffffffffffffffffffffffffffffffffffff021916908373ffffffffffffffffffffffffffffffffffffffff16021790555050505050565b611aa6838383611cb2565b611b5a57600073ffffffffffffffffffffffffffffffffffffffff168373ffffffffffffffffffffffffffffffffffffffff1603611b1b57806040517f7e273289000000000000000000000000000000000000000000000000000000008152600401611b129190612264565b60405180910390fd5b81816040517f177e802f000000000000000000000000000000000000000000000000000000008152600401611b5192919061289c565b60405180910390fd5b505050565b600080600090507a184f03e93ff9f4daa797ed6e38ed64bf6a1f0100000000000000008310611bbd577a184f03e93ff9f4daa797ed6e38ed64bf6a1f0100000000000000008381611bb357611bb261286d565b5b0492506040810190505b6d04ee2d6d415b85acef81000000008310611bfa576d04ee2d6d415b85acef81000000008381611bf057611bef61286d565b5b0492506020810190505b662386f26fc100008310611c2957662386f26fc100008381611c1f57611c1e61286d565b5b0492506010810190505b6305f5e1008310611c52576305f5e1008381611c4857611c4761286d565b5b0492506008810190505b6127108310611c77576127108381611c6d57611c6c61286d565b5b0492506004810190505b60648310611c9a5760648381611c9057611c8f61286d565b5b0492506002810190505b600a8310611ca9576001810190505b80915050919050565b60008073ffffffffffffffffffffffffffffffffffffffff168373ffffffffffffffffffffffffffffffffffffffff1614158015611d6a57508273ffffffffffffffffffffffffffffffffffffffff168473ffffffffffffffffffffffffffffffffffffffff161480611d2b5750611d2a8484610dd1565b5b80611d6957508273ffffffffffffffffffffffffffffffffffffffff16611d5183610fdd565b73ffffffffffffffffffffffffffffffffffffffff16145b5b90509392505050565b6040518060a00160405280600081526020016000815260200160008152602001600073ffffffffffffffffffffffffffffffffffffffff1681526020016000151581525090565b6000604051905090565b600080fd5b600080fd5b60007fffffffff0000000000000000000000000000000000000000000000000000000082169050919050565b611e0381611dce565b8114611e0e57600080fd5b50565b600081359050611e2081611dfa565b92915050565b600060208284031215611e3c57611e3b611dc4565b5b6000611e4a84828501611e11565b91505092915050565b60008115159050919050565b611e6881611e53565b82525050565b6000602082019050611e836000830184611e5f565b92915050565b6000819050919050565b611e9c81611e89565b8114611ea757600080fd5b50565b600081359050611eb981611e93565b92915050565b611ec881611e53565b8114611ed357600080fd5b50565b600081359050611ee581611ebf565b92915050565b60008060408385031215611f0257611f01611dc4565b5b6000611f1085828601611eaa565b9250506020611f2185828601611ed6565b9150509250929050565b600081519050919050565b600082825260208201905092915050565b60005b83811015611f65578082015181840152602081019050611f4a565b60008484015250505050565b6000601f19601f8301169050919050565b6000611f8d82611f2b565b611f978185611f36565b9350611fa7818560208601611f47565b611fb081611f71565b840191505092915050565b60006020820190508181036000830152611fd58184611f82565b905092915050565b600060208284031215611ff357611ff2611dc4565b5b600061200184828501611eaa565b91505092915050565b600073ffffffffffffffffffffffffffffffffffffffff82169050919050565b60006120358261200a565b9050919050565b6120458161202a565b82525050565b6000602082019050612060600083018461203c565b92915050565b61206f8161202a565b811461207a57600080fd5b50565b60008135905061208c81612066565b92915050565b600080604083850312156120a9576120a8611dc4565b5b60006120b78582860161207d565b92505060206120c885828601611eaa565b9150509250929050565b6000602082840312156120e8576120e7611dc4565b5b60006120f68482850161207d565b91505092915050565b60008060006060848603121561211857612117611dc4565b5b60006121268682870161207d565b93505060206121378682870161207d565b925050604061214886828701611eaa565b9150509250925092565b61215b81611e89565b82525050565b61216a8161202a565b82525050565b61217981611e53565b82525050565b60a0820160008201516121956000850182612152565b5060208201516121a86020850182612152565b5060408201516121bb6040850182612152565b5060608201516121ce6060850182612161565b5060808201516121e16080850182612170565b50505050565b600060a0820190506121fc600083018461217f565b92915050565b61220b81611e89565b82525050565b600060a0820190506122266000830188612202565b6122336020830187612202565b6122406040830186612202565b61224d606083018561203c565b61225a6080830184611e5f565b9695505050505050565b60006020820190506122796000830184612202565b92915050565b6000806000806080858703121561229957612298611dc4565b5b60006122a78782880161207d565b94505060206122b887828801611eaa565b93505060406122c987828801611eaa565b92505060606122da87828801611eaa565b91505092959194509250565b600080604083850312156122fd576122fc611dc4565b5b600061230b8582860161207d565b925050602061231c85828601611ed6565b9150509250929050565b600080fd5b600080fd5b7f4e487b7100000000000000000000000000000000000000000000000000000000600052604160045260246000fd5b61236882611f71565b810181811067ffffffffffffffff8211171561238757612386612330565b5b80604052505050565b600061239a611dba565b90506123a6828261235f565b919050565b600067ffffffffffffffff8211156123c6576123c5612330565b5b6123cf82611f71565b9050602081019050919050565b82818337600083830152505050565b60006123fe6123f9846123ab565b612390565b90508281526020810184848401111561241a5761241961232b565b5b6124258482856123dc565b509392505050565b600082601f83011261244257612441612326565b5b81356124528482602086016123eb565b91505092915050565b6000806000806080858703121561247557612474611dc4565b5b60006124838782880161207d565b94505060206124948782880161207d565b93505060406124a587828801611eaa565b925050606085013567ffffffffffffffff8111156124c6576124c5611dc9565b5b6124d28782880161242d565b91505092959194509250565b600080604083850312156124f5576124f4611dc4565b5b60006125038582860161207d565b92505060206125148582860161207d565b9150509250929050565b7f43616c6c6572206973206e6f7420746865206c656e64696e6720706f6f6c206f60008201527f72206f776e657200000000000000000000000000000000000000000000000000602082015250565b600061257a602783611f36565b91506125858261251e565b604082019050919050565b600060208201905081810360008301526125a98161256d565b9050919050565b7f546f6b656e20646f6573206e6f74206578697374000000000000000000000000600082015250565b60006125e6601483611f36565b91506125f1826125b0565b602082019050919050565b60006020820190508181036000830152612615816125d9565b9050919050565b7f4e487b7100000000000000000000000000000000000000000000000000000000600052602260045260246000fd5b6000600282049050600182168061266357607f821691505b6020821081036126765761267561261c565b5b50919050565b6000606082019050612691600083018661203c565b61269e6020830185612202565b6126ab604083018461203c565b949350505050565b7f4e487b7100000000000000000000000000000000000000000000000000000000600052601160045260246000fd5b60006126ed82611e89565b91507fffffffffffffffffffffffffffffffffffffffffffffffffffffffffffffffff820361271f5761271e6126b3565b5b600182019050919050565b600081905092915050565b600061274082611f2b565b61274a818561272a565b935061275a818560208601611f47565b80840191505092915050565b60006127728285612735565b915061277e8284612735565b91508190509392505050565b600081519050919050565b600082825260208201905092915050565b60006127b18261278a565b6127bb8185612795565b93506127cb818560208601611f47565b6127d481611f71565b840191505092915050565b60006080820190506127f4600083018761203c565b612801602083018661203c565b61280e6040830185612202565b818103606083015261282081846127a6565b905095945050505050565b60008151905061283a81611dfa565b92915050565b60006020828403121561285657612855611dc4565b5b60006128648482850161282b565b91505092915050565b7f4e487b7100000000000000000000000000000000000000000000000000000000600052601260045260246000fd5b60006040820190506128b1600083018561203c565b6128be6020830184612202565b939250505056fea2646970667358221220669ad1ecc54c0fa3469cb37ae8dbaca50f6968f03618b9b7836185b479b70a3564736f6c63430008140033",
  "linkReferences": {},
  "deployedLinkReferences": {}
}