{
  "_format": "hh-sol-artifact-1",
  "contractName": "LendingPool",
  "sourceName": "contracts/LendingPool.sol",
  "abi": [
    {
      "inputs": [
        {
          "internalType": "address",
          "name": "_stablecoin",
          "type": "address"
        },
        {
          "internalType": "address",
          "name": "_invoiceNft",
          "type": "address"
        },
        {
          "internalType": "address",
          "name": "_initialOwner",
          "type": "address"
        }
      ],
      "stateMutability": "nonpayable",
      "type": "constructor"
    },
    {
      "inputs": [
        {
          "internalType": "address",
          "name": "owner",
          "type": "address"
        }
      ],
      "name": "OwnableInvalidOwner",
      "type": "error"
    },
    {
      "inputs": [
        {
          "internalType": "address",
          "name": "account",
          "type": "address"
        }
      ],
      "name": "OwnableUnauthorizedAccount",
      "type": "error"
    },
    {
      "inputs": [],
      "name": "ReentrancyGuardReentrantCall",
      "type": "error"
    },
    {
      "anonymous": false,
      "inputs": [
        {
          "indexed": true,
          "internalType": "address",
          "name": "user",
          "type": "address"
        },
        {
          "indexed": false,
          "internalType": "uint256",
          "name": "amount",
          "type": "uint256"
        }
      ],
      "name": "Deposit",
      "type": "event"
    },
    {
      "anonymous": false,
      "inputs": [
        {
          "indexed": true,
          "internalType": "uint256",
          "name": "tokenId",
          "type": "uint256"
        },
        {
          "indexed": true,
          "internalType": "address",
          "name": "borrower",
          "type": "address"
        },
        {
          "indexed": false,
          "internalType": "uint256",
          "name": "amount",
          "type": "uint256"
        }
      ],
      "name": "InvoiceFunded",
      "type": "event"
    },
    {
      "anonymous": false,
      "inputs": [
        {
          "indexed": true,
          "internalType": "uint256",
          "name": "tokenId",
          "type": "uint256"
        },
        {
          "indexed": false,
          "internalType": "uint256",
          "name": "amount",
          "type": "uint256"
        },
        {
          "indexed": false,
          "internalType": "uint256",
          "name": "interest",
          "type": "uint256"
        }
      ],
      "name": "LoanRepaid",
      "type": "event"
    },
    {
      "anonymous": false,
      "inputs": [
        {
          "indexed": true,
          "internalType": "address",
          "name": "previousOwner",
          "type": "address"
        },
        {
          "indexed": true,
          "internalType": "address",
          "name": "newOwner",
          "type": "address"
        }
      ],
      "name": "OwnershipTransferred",
      "type": "event"
    },
    {
      "anonymous": false,
      "inputs": [
        {
          "indexed": true,
          "internalType": "address",
          "name": "user",
          "type": "address"
        },
        {
          "indexed": false,
          "internalType": "uint256",
          "name": "amount",
          "type": "uint256"
        }
      ],
      "name": "Withdraw",
      "type": "event"
    },
    {
      "inputs": [
        {
          "internalType": "uint256",
          "name": "amount",
          "type": "uint256"
        }
      ],
      "name": "deposit",
      "outputs": [],
      "stateMutability": "nonpayable",
      "type": "function"
    },
    {
      "inputs": [
        {
          "internalType": "uint256",
          "name": "tokenId",
          "type": "uint256"
        }
      ],
      "name": "fundInvoice",
      "outputs": [],
      "stateMutability": "nonpayable",
      "type": "function"
    },
    {
      "inputs": [],
      "name": "invoiceNft",
      "outputs": [
        {
          "internalType": "contract InvoiceNFT",
          "name": "",
          "type": "address"
        }
      ],
      "stateMutability": "view",
      "type": "function"
    },
    {
      "inputs": [
        {
          "internalType": "address",
          "name": "",
          "type": "address"
        }
      ],
      "name": "lpBalances",
      "outputs": [
        {
          "internalType": "uint256",
          "name": "",
          "type": "uint256"
        }
      ],
      "stateMutability": "view",
      "type": "function"
    },
    {
      "inputs": [],
      "name": "owner",
      "outputs": [
        {
          "internalType": "address",
          "name": "",
          "type": "address"
        }
      ],
      "stateMutability": "view",
      "type": "function"
    },
    {
      "inputs": [],
      "name": "renounceOwnership",
      "outputs": [],
      "stateMutability": "nonpayable",
      "type": "function"
    },
    {
      "inputs": [
        {
          "internalType": "uint256",
          "name": "tokenId",
          "type": "uint256"
        },
        {
          "internalType": "uint256",
          "name": "amount",
          "type": "uint256"
        }
      ],
      "name": "repay",
      "outputs": [],
      "stateMutability": "nonpayable",
      "type": "function"
    },
    {
      "inputs": [],
      "name": "stablecoin",
      "outputs": [
        {
          "internalType": "contract IERC20",
          "name": "",
          "type": "address"
        }
      ],
      "stateMutability": "view",
      "type": "function"
    },
    {
      "inputs": [],
      "name": "totalLiquidity",
      "outputs": [
        {
          "internalType": "uint256",
          "name": "",
          "type": "uint256"
        }
      ],
      "stateMutability": "view",
      "type": "function"
    },
    {
      "inputs": [
        {
          "internalType": "address",
          "name": "newOwner",
          "type": "address"
        }
      ],
      "name": "transferOwnership",
      "outputs": [],
      "stateMutability": "nonpayable",
      "type": "function"
    },
    {
      "inputs": [
        {
          "internalType": "uint256",
          "name": "amount",
          "type": "uint256"
        }
      ],
      "name": "withdraw",
      "outputs": [],
      "stateMutability": "nonpayable",
      "type": "function"
    }
  ],
  "bytecode": "0x60806040523480156200001157600080fd5b50604051620017bd380380620017bd83398181016040528101906200003791906200027f565b80600073ffffffffffffffffffffffffffffffffffffffff168173ffffffffffffffffffffffffffffffffffffffff1603620000ad5760006040517f1e4fbdf7000000000000000000000000000000000000000000000000000000008152600401620000a49190620002ec565b60405180910390fd5b620000be816200015160201b60201c565b506001808190555082600260006101000a81548173ffffffffffffffffffffffffffffffffffffffff021916908373ffffffffffffffffffffffffffffffffffffffff16021790555081600360006101000a81548173ffffffffffffffffffffffffffffffffffffffff021916908373ffffffffffffffffffffffffffffffffffffffff16021790555050505062000309565b60008060009054906101000a900473ffffffffffffffffffffffffffffffffffffffff169050816000806101000a81548173ffffffffffffffffffffffffffffffffffffffff021916908373ffffffffffffffffffffffffffffffffffffffff1602179055508173ffffffffffffffffffffffffffffffffffffffff168173ffffffffffffffffffffffffffffffffffffffff167f8be0079c531659141344cd1fd0a4f28419497f9722a3daafe3b4186f6b6457e060405160405180910390a35050565b600080fd5b600073ffffffffffffffffffffffffffffffffffffffff82169050919050565b600062000247826200021a565b9050919050565b62000259816200023a565b81146200026557600080fd5b50565b60008151905062000279816200024e565b92915050565b6000806000606084860312156200029b576200029a62000215565b5b6000620002ab8682870162000268565b9350506020620002be8682870162000268565b9250506040620002d18682870162000268565b9150509250925092565b620002e6816200023a565b82525050565b6000602082019050620003036000830184620002db565b92915050565b6114a480620003196000396000f3fe608060405234801561001057600080fd5b50600436106100a95760003560e01c80638da5cb5b116100715780638da5cb5b1461013e578063960c5a5a1461015c578063b6b55f251461017a578063d8aed14514610196578063e9cbd822146101b2578063f2fde38b146101d0576100a9565b80630b65092d146100ae57806315770f92146100de5780632e1a7d4d146100fc57806364d5fa4714610118578063715018a614610134575b600080fd5b6100c860048036038101906100c39190610cfb565b6101ec565b6040516100d59190610d41565b60405180910390f35b6100e6610204565b6040516100f39190610d41565b60405180910390f35b61011660048036038101906101119190610d88565b61020a565b005b610132600480360381019061012d9190610d88565b610442565b005b61013c61071c565b005b610146610730565b6040516101539190610dc4565b60405180910390f35b610164610759565b6040516101719190610e3e565b60405180910390f35b610194600480360381019061018f9190610d88565b61077f565b005b6101b060048036038101906101ab9190610e59565b610935565b005b6101ba610a40565b6040516101c79190610eba565b60405180910390f35b6101ea60048036038101906101e59190610cfb565b610a66565b005b60056020528060005260406000206000915090505481565b60045481565b610212610aec565b80600560003373ffffffffffffffffffffffffffffffffffffffff1673ffffffffffffffffffffffffffffffffffffffff168152602001908152602001600020541015610294576040517f08c379a000000000000000000000000000000000000000000000000000000000815260040161028b90610f32565b60405180910390fd5b8060045410156102d9576040517f08c379a00000000000000000000000000000000000000000000000000000000081526004016102d090610f9e565b60405180910390fd5b80600560003373ffffffffffffffffffffffffffffffffffffffff1673ffffffffffffffffffffffffffffffffffffffff16815260200190815260200160002060008282546103289190610fed565b9250508190555080600460008282546103419190610fed565b92505081905550600260009054906101000a900473ffffffffffffffffffffffffffffffffffffffff1673ffffffffffffffffffffffffffffffffffffffff1663a9059cbb33836040518363ffffffff1660e01b81526004016103a5929190611021565b6020604051808303816000875af11580156103c4573d6000803e3d6000fd5b505050506040513d601f19601f820116820180604052508101906103e89190611082565b503373ffffffffffffffffffffffffffffffffffffffff167f884edad9ce6fa2440d8a54cc123490eb96d2768479d49ff9c7366125a94243648260405161042f9190610d41565b60405180910390a261043f610b32565b50565b61044a610b3b565b610452610aec565b6000600360009054906101000a900473ffffffffffffffffffffffffffffffffffffffff1673ffffffffffffffffffffffffffffffffffffffff16633a23cc0a836040518263ffffffff1660e01b81526004016104af9190610d41565b60a060405180830381865afa1580156104cc573d6000803e3d6000fd5b505050506040513d601f19601f820116820180604052508101906104f091906111f6565b9050806080015115610537576040517f08c379a000000000000000000000000000000000000000000000000000000000815260040161052e9061126f565b60405180910390fd5b80600001516004541015610580576040517f08c379a0000000000000000000000000000000000000000000000000000000008152600401610577906112db565b60405180910390fd5b600360009054906101000a900473ffffffffffffffffffffffffffffffffffffffff1673ffffffffffffffffffffffffffffffffffffffff166305f7db628360016040518363ffffffff1660e01b81526004016105de92919061130a565b600060405180830381600087803b1580156105f857600080fd5b505af115801561060c573d6000803e3d6000fd5b50505050600260009054906101000a900473ffffffffffffffffffffffffffffffffffffffff1673ffffffffffffffffffffffffffffffffffffffff1663a9059cbb826060015183600001516040518363ffffffff1660e01b8152600401610675929190611021565b6020604051808303816000875af1158015610694573d6000803e3d6000fd5b505050506040513d601f19601f820116820180604052508101906106b89190611082565b50806060015173ffffffffffffffffffffffffffffffffffffffff16827fa89eb6891733765ee1680954e6c13fbca417ad37abee83d50d8efdb86a6db52383600001516040516107089190610d41565b60405180910390a350610719610b32565b50565b610724610b3b565b61072e6000610bc2565b565b60008060009054906101000a900473ffffffffffffffffffffffffffffffffffffffff16905090565b600360009054906101000a900473ffffffffffffffffffffffffffffffffffffffff1681565b610787610aec565b600081116107ca576040517f08c379a00000000000000000000000000000000000000000000000000000000081526004016107c19061137f565b60405180910390fd5b600260009054906101000a900473ffffffffffffffffffffffffffffffffffffffff1673ffffffffffffffffffffffffffffffffffffffff166323b872dd3330846040518463ffffffff1660e01b81526004016108299392919061139f565b6020604051808303816000875af1158015610848573d6000803e3d6000fd5b505050506040513d601f19601f8201168201806040525081019061086c9190611082565b5080600560003373ffffffffffffffffffffffffffffffffffffffff1673ffffffffffffffffffffffffffffffffffffffff16815260200190815260200160002060008282546108bc91906113d6565b9250508190555080600460008282546108d591906113d6565b925050819055503373ffffffffffffffffffffffffffffffffffffffff167fe1fffcc4923d04b559f4d29a8bfc6cda04eb5b0d3c460751c2402c5c5cc9109c826040516109229190610d41565b60405180910390a2610932610b32565b50565b61093d610aec565b600260009054906101000a900473ffffffffffffffffffffffffffffffffffffffff1673ffffffffffffffffffffffffffffffffffffffff166323b872dd3330846040518463ffffffff1660e01b815260040161099c9392919061139f565b6020604051808303816000875af11580156109bb573d6000803e3d6000fd5b505050506040513d601f19601f820116820180604052508101906109df9190611082565b5080600460008282546109f291906113d6565b92505081905550817fd9cfbcfb9ae5d65b8d34072de4575f602ee25cf3715bc05c291701fe9e258f9a826000604051610a2c929190611445565b60405180910390a2610a3c610b32565b5050565b600260009054906101000a900473ffffffffffffffffffffffffffffffffffffffff1681565b610a6e610b3b565b600073ffffffffffffffffffffffffffffffffffffffff168173ffffffffffffffffffffffffffffffffffffffff1603610ae05760006040517f1e4fbdf7000000000000000000000000000000000000000000000000000000008152600401610ad79190610dc4565b60405180910390fd5b610ae981610bc2565b50565b600260015403610b28576040517f3ee5aeb500000000000000000000000000000000000000000000000000000000815260040160405180910390fd5b6002600181905550565b60018081905550565b610b43610c86565b73ffffffffffffffffffffffffffffffffffffffff16610b61610730565b73ffffffffffffffffffffffffffffffffffffffff1614610bc057610b84610c86565b6040517f118cdaa7000000000000000000000000000000000000000000000000000000008152600401610bb79190610dc4565b60405180910390fd5b565b60008060009054906101000a900473ffffffffffffffffffffffffffffffffffffffff169050816000806101000a81548173ffffffffffffffffffffffffffffffffffffffff021916908373ffffffffffffffffffffffffffffffffffffffff1602179055508173ffffffffffffffffffffffffffffffffffffffff168173ffffffffffffffffffffffffffffffffffffffff167f8be0079c531659141344cd1fd0a4f28419497f9722a3daafe3b4186f6b6457e060405160405180910390a35050565b600033905090565b6000604051905090565b600080fd5b600073ffffffffffffffffffffffffffffffffffffffff82169050919050565b6000610cc882610c9d565b9050919050565b610cd881610cbd565b8114610ce357600080fd5b50565b600081359050610cf581610ccf565b92915050565b600060208284031215610d1157610d10610c98565b5b6000610d1f84828501610ce6565b91505092915050565b6000819050919050565b610d3b81610d28565b82525050565b6000602082019050610d566000830184610d32565b92915050565b610d6581610d28565b8114610d7057600080fd5b50565b600081359050610d8281610d5c565b92915050565b600060208284031215610d9e57610d9d610c98565b5b6000610dac84828501610d73565b91505092915050565b610dbe81610cbd565b82525050565b6000602082019050610dd96000830184610db5565b92915050565b6000819050919050565b6000610e04610dff610dfa84610c9d565b610ddf565b610c9d565b9050919050565b6000610e1682610de9565b9050919050565b6000610e2882610e0b565b9050919050565b610e3881610e1d565b82525050565b6000602082019050610e536000830184610e2f565b92915050565b60008060408385031215610e7057610e6f610c98565b5b6000610e7e85828601610d73565b9250506020610e8f85828601610d73565b9150509250929050565b6000610ea482610e0b565b9050919050565b610eb481610e99565b82525050565b6000602082019050610ecf6000830184610eab565b92915050565b600082825260208201905092915050565b7f496e73756666696369656e742062616c616e6365000000000000000000000000600082015250565b6000610f1c601483610ed5565b9150610f2782610ee6565b602082019050919050565b60006020820190508181036000830152610f4b81610f0f565b9050919050565b7f506f6f6c206c697175696469747920746f6f206c6f7700000000000000000000600082015250565b6000610f88601683610ed5565b9150610f9382610f52565b602082019050919050565b60006020820190508181036000830152610fb781610f7b565b9050919050565b7f4e487b7100000000000000000000000000000000000000000000000000000000600052601160045260246000fd5b6000610ff882610d28565b915061100383610d28565b925082820390508181111561101b5761101a610fbe565b5b92915050565b60006040820190506110366000830185610db5565b6110436020830184610d32565b9392505050565b60008115159050919050565b61105f8161104a565b811461106a57600080fd5b50565b60008151905061107c81611056565b92915050565b60006020828403121561109857611097610c98565b5b60006110a68482850161106d565b91505092915050565b600080fd5b6000601f19601f8301169050919050565b7f4e487b7100000000000000000000000000000000000000000000000000000000600052604160045260246000fd5b6110fd826110b4565b810181811067ffffffffffffffff8211171561111c5761111b6110c5565b5b80604052505050565b600061112f610c8e565b905061113b82826110f4565b919050565b60008151905061114f81610d5c565b92915050565b60008151905061116481610ccf565b92915050565b600060a082840312156111805761117f6110af565b5b61118a60a0611125565b9050600061119a84828501611140565b60008301525060206111ae84828501611140565b60208301525060406111c284828501611140565b60408301525060606111d684828501611155565b60608301525060806111ea8482850161106d565b60808301525092915050565b600060a0828403121561120c5761120b610c98565b5b600061121a8482850161116a565b91505092915050565b7f416c72656164792066756e646564000000000000000000000000000000000000600082015250565b6000611259600e83610ed5565b915061126482611223565b602082019050919050565b600060208201905081810360008301526112888161124c565b9050919050565b7f496e73756666696369656e74206c697175696469747920696e20706f6f6c0000600082015250565b60006112c5601e83610ed5565b91506112d08261128f565b602082019050919050565b600060208201905081810360008301526112f4816112b8565b9050919050565b6113048161104a565b82525050565b600060408201905061131f6000830185610d32565b61132c60208301846112fb565b9392505050565b7f416d6f756e74206d757374206265203e20300000000000000000000000000000600082015250565b6000611369601283610ed5565b915061137482611333565b602082019050919050565b600060208201905081810360008301526113988161135c565b9050919050565b60006060820190506113b46000830186610db5565b6113c16020830185610db5565b6113ce6040830184610d32565b949350505050565b60006113e182610d28565b91506113ec83610d28565b925082820190508082111561140457611403610fbe565b5b92915050565b6000819050919050565b600061142f61142a6114258461140a565b610ddf565b610d28565b9050919050565b61143f81611414565b82525050565b600060408201905061145a6000830185610d32565b6114676020830184611436565b939250505056fea2646970667358221220f13c226ec5c26bbe65e63c5d3bc9a027ad6b0f61a7d0d042e6dcba7d3825ac3b64736f6c63430008140033",
  "linkReferences": {},
  "deployedLinkReferences": {}
}